{"abi":[{"type":"constructor","inputs":[{"name":"name","type":"string","internalType":"string"},{"name":"symbol","type":"string","internalType":"string"},{"name":"initialOwner","type":"address","internalType":"address"},{"name":"verifierContractConstructor","type":"address","internalType":"contract IHumanVerifier"},{"name":"namePricingContractConstructor","type":"address","internalType":"contract INamePricing"}],"stateMutability":"nonpayable"},{"type":"function","name":"addHumanVerifierContract","inputs":[{"name":"humanVerifierContract","type":"address","internalType":"address"}],"outputs":[],"stateMutability":"nonpayable"},{"type":"function","name":"approve","inputs":[{"name":"to","type":"address","internalType":"address"},{"name":"tokenId","type":"uint256","internalType":"uint256"}],"outputs":[],"stateMutability":"nonpayable"},{"type":"function","name":"balanceOf","inputs":[{"name":"owner","type":"address","internalType":"address"}],"outputs":[{"name":"","type":"uint256","internalType":"uint256"}],"stateMutability":"view"},{"type":"function","name":"clearExpiredName","inputs":[{"name":"nameID","type":"uint256","internalType":"uint256"}],"outputs":[],"stateMutability":"nonpayable"},{"type":"function","name":"data","inputs":[{"name":"nameID","type":"uint256","internalType":"uint256"}],"outputs":[{"name":"","type":"address","internalType":"address"}],"stateMutability":"view"},{"type":"function","name":"doesNameExist","inputs":[{"name":"nameID","type":"uint256","internalType":"uint256"}],"outputs":[{"name":"","type":"bool","internalType":"bool"}],"stateMutability":"view"},{"type":"function","name":"getApproved","inputs":[{"name":"tokenId","type":"uint256","internalType":"uint256"}],"outputs":[{"name":"","type":"address","internalType":"address"}],"stateMutability":"view"},{"type":"function","name":"getExpirationTimestamp","inputs":[{"name":"nameID","type":"uint256","internalType":"uint256"}],"outputs":[{"name":"","type":"uint256","internalType":"uint256"}],"stateMutability":"view"},{"type":"function","name":"getName","inputs":[{"name":"nameID","type":"uint256","internalType":"uint256"}],"outputs":[{"name":"","type":"string","internalType":"string"}],"stateMutability":"view"},{"type":"function","name":"getNameType","inputs":[{"name":"nameID","type":"uint256","internalType":"uint256"}],"outputs":[{"name":"","type":"uint8","internalType":"uint8"}],"stateMutability":"view"},{"type":"function","name":"getParentID","inputs":[{"name":"nameID","type":"uint256","internalType":"uint256"}],"outputs":[{"name":"","type":"uint256","internalType":"uint256"}],"stateMutability":"view"},{"type":"function","name":"hasHumanName","inputs":[{"name":"potentialOwner","type":"address","internalType":"address"}],"outputs":[{"name":"","type":"bool","internalType":"bool"}],"stateMutability":"view"},{"type":"function","name":"humanNames","inputs":[{"name":"","type":"address","internalType":"address"}],"outputs":[{"name":"","type":"uint256","internalType":"uint256"}],"stateMutability":"view"},{"type":"function","name":"isApprovedForAll","inputs":[{"name":"owner","type":"address","internalType":"address"},{"name":"operator","type":"address","internalType":"address"}],"outputs":[{"name":"","type":"bool","internalType":"bool"}],"stateMutability":"view"},{"type":"function","name":"isHumanNameVerified","inputs":[{"name":"nameID","type":"uint256","internalType":"uint256"}],"outputs":[{"name":"","type":"bool","internalType":"bool"}],"stateMutability":"view"},{"type":"function","name":"mainHumanVerifierContract","inputs":[],"outputs":[{"name":"","type":"address","internalType":"contract IHumanVerifier"}],"stateMutability":"view"},{"type":"function","name":"name","inputs":[],"outputs":[{"name":"","type":"string","internalType":"string"}],"stateMutability":"view"},{"type":"function","name":"namePricingContract","inputs":[],"outputs":[{"name":"","type":"address","internalType":"contract INamePricing"}],"stateMutability":"view"},{"type":"function","name":"newArtificialName","inputs":[{"name":"name","type":"string","internalType":"string"},{"name":"creatorNameID","type":"uint256","internalType":"uint256"},{"name":"pubkeyX","type":"bytes32","internalType":"bytes32"},{"name":"pubkeyY","type":"bytes32","internalType":"bytes32"},{"name":"duration_in_weeks","type":"uint32","internalType":"uint32"}],"outputs":[{"name":"","type":"uint256","internalType":"uint256"}],"stateMutability":"payable"},{"type":"function","name":"newHumanName","inputs":[{"name":"name","type":"string","internalType":"string"},{"name":"pubkeyX","type":"bytes32","internalType":"bytes32"},{"name":"pubkeyY","type":"bytes32","internalType":"bytes32"},{"name":"duration_in_weeks","type":"uint32","internalType":"uint32"}],"outputs":[{"name":"","type":"uint256","internalType":"uint256"}],"stateMutability":"payable"},{"type":"function","name":"newSubname","inputs":[{"name":"nameID","type":"uint256","internalType":"uint256"},{"name":"subname","type":"string","internalType":"string"}],"outputs":[{"name":"","type":"uint256","internalType":"uint256"}],"stateMutability":"nonpayable"},{"type":"function","name":"owner","inputs":[],"outputs":[{"name":"","type":"address","internalType":"address"}],"stateMutability":"view"},{"type":"function","name":"ownerOf","inputs":[{"name":"nameID","type":"uint256","internalType":"uint256"}],"outputs":[{"name":"","type":"address","internalType":"address"}],"stateMutability":"view"},{"type":"function","name":"removeHumanVerifierContract","inputs":[{"name":"humanVerifierContract","type":"address","internalType":"address"}],"outputs":[],"stateMutability":"nonpayable"},{"type":"function","name":"removeSubname","inputs":[{"name":"subnameID","type":"uint256","internalType":"uint256"}],"outputs":[],"stateMutability":"nonpayable"},{"type":"function","name":"renounceOwnership","inputs":[],"outputs":[],"stateMutability":"nonpayable"},{"type":"function","name":"safeTransferFrom","inputs":[{"name":"from","type":"address","internalType":"address"},{"name":"to","type":"address","internalType":"address"},{"name":"tokenId","type":"uint256","internalType":"uint256"}],"outputs":[],"stateMutability":"nonpayable"},{"type":"function","name":"safeTransferFrom","inputs":[{"name":"from","type":"address","internalType":"address"},{"name":"to","type":"address","internalType":"address"},{"name":"tokenId","type":"uint256","internalType":"uint256"},{"name":"data","type":"bytes","internalType":"bytes"}],"outputs":[],"stateMutability":"nonpayable"},{"type":"function","name":"setApprovalForAll","inputs":[{"name":"operator","type":"address","internalType":"address"},{"name":"approved","type":"bool","internalType":"bool"}],"outputs":[],"stateMutability":"nonpayable"},{"type":"function","name":"setDataContract","inputs":[{"name":"nameID","type":"uint256","internalType":"uint256"},{"name":"dataContract","type":"address","internalType":"address"}],"outputs":[],"stateMutability":"nonpayable"},{"type":"function","name":"setNamePricingContract","inputs":[{"name":"_namePricingContract","type":"address","internalType":"address"}],"outputs":[],"stateMutability":"nonpayable"},{"type":"function","name":"setPubkey","inputs":[{"name":"nameID","type":"uint256","internalType":"uint256"},{"name":"pubkeyX","type":"bytes32","internalType":"bytes32"},{"name":"pubkeyY","type":"bytes32","internalType":"bytes32"}],"outputs":[],"stateMutability":"nonpayable"},{"type":"function","name":"setSocietyRoot","inputs":[{"name":"_societyRoot","type":"bytes32","internalType":"bytes32"}],"outputs":[],"stateMutability":"nonpayable"},{"type":"function","name":"societyRoot","inputs":[],"outputs":[{"name":"","type":"bytes32","internalType":"bytes32"}],"stateMutability":"view"},{"type":"function","name":"subnameIndex","inputs":[{"name":"nameID","type":"uint256","internalType":"uint256"},{"name":"index","type":"uint256","internalType":"uint256"}],"outputs":[{"name":"","type":"uint256","internalType":"uint256"}],"stateMutability":"view"},{"type":"function","name":"subnamesAmount","inputs":[{"name":"nameID","type":"uint256","internalType":"uint256"}],"outputs":[{"name":"","type":"uint256","internalType":"uint256"}],"stateMutability":"view"},{"type":"function","name":"supportsInterface","inputs":[{"name":"interfaceId","type":"bytes4","internalType":"bytes4"}],"outputs":[{"name":"","type":"bool","internalType":"bool"}],"stateMutability":"view"},{"type":"function","name":"symbol","inputs":[],"outputs":[{"name":"","type":"string","internalType":"string"}],"stateMutability":"view"},{"type":"function","name":"tokenByIndex","inputs":[{"name":"index","type":"uint256","internalType":"uint256"}],"outputs":[{"name":"","type":"uint256","internalType":"uint256"}],"stateMutability":"view"},{"type":"function","name":"tokenOfOwnerByIndex","inputs":[{"name":"owner","type":"address","internalType":"address"},{"name":"index","type":"uint256","internalType":"uint256"}],"outputs":[{"name":"","type":"uint256","internalType":"uint256"}],"stateMutability":"view"},{"type":"function","name":"tokenURI","inputs":[{"name":"tokenId","type":"uint256","internalType":"uint256"}],"outputs":[{"name":"","type":"string","internalType":"string"}],"stateMutability":"view"},{"type":"function","name":"totalSupply","inputs":[],"outputs":[{"name":"","type":"uint256","internalType":"uint256"}],"stateMutability":"view"},{"type":"function","name":"transferFrom","inputs":[{"name":"from","type":"address","internalType":"address"},{"name":"to","type":"address","internalType":"address"},{"name":"tokenID","type":"uint256","internalType":"uint256"}],"outputs":[],"stateMutability":"nonpayable"},{"type":"function","name":"transferOwnership","inputs":[{"name":"newOwner","type":"address","internalType":"address"}],"outputs":[],"stateMutability":"nonpayable"},{"type":"function","name":"verifyHuman","inputs":[{"name":"proof","type":"bytes","internalType":"bytes"},{"name":"nameID","type":"uint256","internalType":"uint256"},{"name":"verifiedForTimestamp","type":"uint256","internalType":"uint256"},{"name":"humanVerifierAddress","type":"address","internalType":"address"}],"outputs":[],"stateMutability":"nonpayable"},{"type":"event","name":"Approval","inputs":[{"name":"owner","type":"address","indexed":true,"internalType":"address"},{"name":"approved","type":"address","indexed":true,"internalType":"address"},{"name":"tokenId","type":"uint256","indexed":true,"internalType":"uint256"}],"anonymous":false},{"type":"event","name":"ApprovalForAll","inputs":[{"name":"owner","type":"address","indexed":true,"internalType":"address"},{"name":"operator","type":"address","indexed":true,"internalType":"address"},{"name":"approved","type":"bool","indexed":false,"internalType":"bool"}],"anonymous":false},{"type":"event","name":"OwnershipTransferred","inputs":[{"name":"previousOwner","type":"address","indexed":true,"internalType":"address"},{"name":"newOwner","type":"address","indexed":true,"internalType":"address"}],"anonymous":false},{"type":"event","name":"Transfer","inputs":[{"name":"from","type":"address","indexed":true,"internalType":"address"},{"name":"to","type":"address","indexed":true,"internalType":"address"},{"name":"tokenId","type":"uint256","indexed":true,"internalType":"uint256"}],"anonymous":false},{"type":"event","name":"humanNameCreated","inputs":[{"name":"name","type":"string","indexed":false,"internalType":"string"},{"name":"creator","type":"address","indexed":false,"internalType":"address"}],"anonymous":false},{"type":"event","name":"humanNameCreated","inputs":[{"name":"name","type":"string","indexed":false,"internalType":"string"},{"name":"creatorNameID","type":"uint256","indexed":false,"internalType":"uint256"}],"anonymous":false},{"type":"event","name":"humanVerified","inputs":[{"name":"nameID","type":"uint256","indexed":false,"internalType":"uint256"}],"anonymous":false},{"type":"event","name":"subnameCreated","inputs":[{"name":"subname","type":"string","indexed":false,"internalType":"string"},{"name":"creatorNameID","type":"uint256","indexed":false,"internalType":"uint256"},{"name":"subnameID","type":"uint256","indexed":false,"internalType":"uint256"}],"anonymous":false},{"type":"error","name":"ERC721EnumerableForbiddenBatchMint","inputs":[]},{"type":"error","name":"ERC721IncorrectOwner","inputs":[{"name":"sender","type":"address","internalType":"address"},{"name":"tokenId","type":"uint256","internalType":"uint256"},{"name":"owner","type":"address","internalType":"address"}]},{"type":"error","name":"ERC721InsufficientApproval","inputs":[{"name":"operator","type":"address","internalType":"address"},{"name":"tokenId","type":"uint256","internalType":"uint256"}]},{"type":"error","name":"ERC721InvalidApprover","inputs":[{"name":"approver","type":"address","internalType":"address"}]},{"type":"error","name":"ERC721InvalidOperator","inputs":[{"name":"operator","type":"address","internalType":"address"}]},{"type":"error","name":"ERC721InvalidOwner","inputs":[{"name":"owner","type":"address","internalType":"address"}]},{"type":"error","name":"ERC721InvalidReceiver","inputs":[{"name":"receiver","type":"address","internalType":"address"}]},{"type":"error","name":"ERC721InvalidSender","inputs":[{"name":"sender","type":"address","internalType":"address"}]},{"type":"error","name":"ERC721NonexistentToken","inputs":[{"name":"tokenId","type":"uint256","internalType":"uint256"}]},{"type":"error","name":"ERC721OutOfBoundsIndex","inputs":[{"name":"owner","type":"address","internalType":"address"},{"name":"index","type":"uint256","internalType":"uint256"}]},{"type":"error","name":"OwnableInvalidOwner","inputs":[{"name":"owner","type":"address","internalType":"address"}]},{"type":"error","name":"OwnableUnauthorizedAccount","inputs":[{"name":"account","type":"address","internalType":"address"}]},{"type":"error","name":"WoolballNonExistentName","inputs":[{"name":"nameID","type":"uint256","internalType":"uint256"}]}],"bytecode":{"object":"0x608060405234801561001057600080fd5b5060405161556c38038061556c83398101604081905261002f916101e5565b8484846001600160a01b03811661006057604051631e4fbdf760e01b81526000600482015260240160405180910390fd5b610069816100c4565b5060016100768382610313565b5060026100838282610313565b5050600d80546001600160a01b039485166001600160a01b03199182161790915560118054939094169216919091179091555050601e600b55506103d19050565b600080546001600160a01b038381166001600160a01b0319831681178455604051919092169283917f8be0079c531659141344cd1fd0a4f28419497f9722a3daafe3b4186f6b6457e09190a35050565b634e487b7160e01b600052604160045260246000fd5b600082601f83011261013b57600080fd5b81516001600160401b0381111561015457610154610114565b604051601f8201601f19908116603f011681016001600160401b038111828210171561018257610182610114565b60405281815283820160200185101561019a57600080fd5b60005b828110156101b95760208186018101518383018201520161019d565b506000918101602001919091529392505050565b6001600160a01b03811681146101e257600080fd5b50565b600080600080600060a086880312156101fd57600080fd5b85516001600160401b0381111561021357600080fd5b61021f8882890161012a565b602088015190965090506001600160401b0381111561023d57600080fd5b6102498882890161012a565b945050604086015161025a816101cd565b606087015190935061026b816101cd565b608087015190925061027c816101cd565b809150509295509295909350565b600181811c9082168061029e57607f821691505b6020821081036102be57634e487b7160e01b600052602260045260246000fd5b50919050565b601f82111561030e57806000526020600020601f840160051c810160208510156102eb5750805b601f840160051c820191505b8181101561030b57600081556001016102f7565b50505b505050565b81516001600160401b0381111561032c5761032c610114565b6103408161033a845461028a565b846102c4565b6020601f821160018114610374576000831561035c5750848201515b600019600385901b1c1916600184901b17845561030b565b600084815260208120601f198516915b828110156103a45787850151825560209485019460019092019101610384565b50848210156103c25786840151600019600387901b60f8161c191681555b50505050600190811b01905550565b61518c806103e06000396000f3fe6080604052600436106102f25760003560e01c8063715018a61161018f578063b88d4fde116100e1578063dbb4828e1161008a578063ea5e6f3f11610064578063ea5e6f3f14610893578063f0ba8440146108b3578063f2fde38b146108d357600080fd5b8063dbb4828e1461080a578063e985e9c51461082a578063ea5138ec1461087357600080fd5b8063cb489594116100bb578063cb4895941461079d578063d9244b93146107bd578063d9e5896e146107ea57600080fd5b8063b88d4fde1461074a578063c7cc5e981461076a578063c87b56dd1461077d57600080fd5b806386a4961f11610143578063a22cb4651161011d578063a22cb465146106ea578063ae8655801461070a578063b5916ab21461072a57600080fd5b806386a4961f146106a15780638da5cb5b146106b757806395d89b41146106d557600080fd5b806379d290dc1161017457806379d290dc14610641578063801156ea14610661578063854cac2d1461068157600080fd5b8063715018a61461060c57806373681ba11461062157600080fd5b80632b03d78b116102485780634812e029116101fc5780636352211e116101d65780636352211e146105ac5780636b8ff574146105cc57806370a08231146105ec57600080fd5b80634812e029146105595780634f6ccce714610579578063631549d21461059957600080fd5b80632f745c591161022d5780632f745c59146104e957806330b947701461050957806342842e0e1461053957600080fd5b80632b03d78b146104a95780632bc4ab27146104c957600080fd5b80630ae5fa41116102aa5780631e857a15116102845780631e857a15146104395780632277bba81461046957806323b872dd1461048957600080fd5b80630ae5fa41146103c85780630c1906ec146103fa57806318160ddd1461041a57600080fd5b8063081812fc116102db578063081812fc1461034e578063095ea7b3146103865780630a41529e146103a857600080fd5b806301ffc9a7146102f757806306fdde031461032c575b600080fd5b34801561030357600080fd5b5061031761031236600461454a565b6108f3565b60405190151581526020015b60405180910390f35b34801561033857600080fd5b5061034161094f565b60405161032391906145b7565b34801561035a57600080fd5b5061036e6103693660046145ca565b6109e1565b6040516001600160a01b039091168152602001610323565b34801561039257600080fd5b506103a66103a13660046145fa565b610a0a565b005b3480156103b457600080fd5b506103a66103c33660046145ca565b610a19565b3480156103d457600080fd5b506103e86103e33660046145ca565b610b31565b60405160ff9091168152602001610323565b34801561040657600080fd5b506103a6610415366004614624565b610b57565b34801561042657600080fd5b506009545b604051908152602001610323565b34801561044557600080fd5b5061042b6104543660046145ca565b6000908152600f602052604090206006015490565b34801561047557600080fd5b506103a66104843660046145ca565b610bfc565b34801561049557600080fd5b506103a66104a4366004614650565b610c09565b3480156104b557600080fd5b506103a66104c43660046146d6565b610d36565b3480156104d557600080fd5b506103176104e436600461473d565b610f9d565b3480156104f557600080fd5b5061042b6105043660046145fa565b610fd4565b34801561051557600080fd5b5061042b6105243660046145ca565b6000908152600f602052604090206004015490565b34801561054557600080fd5b506103a6610554366004614650565b611052565b34801561056557600080fd5b5061042b610574366004614758565b611072565b34801561058557600080fd5b5061042b6105943660046145ca565b6110a8565b61042b6105a736600461478e565b61111a565b3480156105b857600080fd5b5061036e6105c73660046145ca565b611ab7565b3480156105d857600080fd5b506103416105e73660046145ca565b611b0e565b3480156105f857600080fd5b5061042b61060736600461473d565b611d23565b34801561061857600080fd5b506103a6611d84565b34801561062d57600080fd5b506103a661063c3660046147fd565b611d98565b34801561064d57600080fd5b5061031761065c3660046145ca565b611e5e565b34801561066d57600080fd5b5060115461036e906001600160a01b031681565b34801561068d57600080fd5b506103a661069c36600461473d565b611f32565b3480156106ad57600080fd5b5061042b600e5481565b3480156106c357600080fd5b506000546001600160a01b031661036e565b3480156106e157600080fd5b50610341611f5e565b3480156106f657600080fd5b506103a6610705366004614837565b611f6d565b34801561071657600080fd5b506103a661072536600461473d565b611f78565b34801561073657600080fd5b5061042b61074536600461486e565b611faf565b34801561075657600080fd5b506103a66107653660046148e9565b612826565b61042b6107783660046149ce565b61283e565b34801561078957600080fd5b506103416107983660046145ca565b613144565b3480156107a957600080fd5b50600d5461036e906001600160a01b031681565b3480156107c957600080fd5b5061042b6107d836600461473d565b60106020526000908152604090205481565b3480156107f657600080fd5b5061042b6108053660046145ca565b6131b8565b34801561081657600080fd5b506103a661082536600461473d565b6132f8565b34801561083657600080fd5b50610317610845366004614a29565b6001600160a01b03918216600090815260066020908152604080832093909416825291909152205460ff1690565b34801561087f57600080fd5b506103a661088e3660046145ca565b613321565b34801561089f57600080fd5b506103176108ae3660046145ca565b613451565b3480156108bf57600080fd5b5061036e6108ce3660046145ca565b613464565b3480156108df57600080fd5b506103a66108ee36600461473d565b6134cc565b60007fffffffff0000000000000000000000000000000000000000000000000000000082167f780e9d63000000000000000000000000000000000000000000000000000000001480610949575061094982613520565b92915050565b60606001805461095e90614a53565b80601f016020809104026020016040519081016040528092919081815260200182805461098a90614a53565b80156109d75780601f106109ac576101008083540402835291602001916109d7565b820191906000526020600020905b8154815290600101906020018083116109ba57829003601f168201915b5050505050905090565b60006109ec82613603565b506000828152600560205260409020546001600160a01b0316610949565b610a15828233613655565b5050565b8033610a2482611ab7565b6001600160a01b031614610aa55760405162461bcd60e51b815260206004820152602e60248201527f576f6f6c62616c6c3a2073656e646572206973206e6f7420746865206f776e6560448201527f72206f6620746865206e616d652e00000000000000000000000000000000000060648201526084015b60405180910390fd5b6000828152600f6020526040902060020154610b285760405162461bcd60e51b8152602060048201526024808201527f576f6f6c62616c6c3a205375626e616d6520697320616c72656164792072656d60448201527f6f766564000000000000000000000000000000000000000000000000000000006064820152608401610a9c565b610a1582613662565b6000818152600f602052604081206001015460ff16600381111561094957610949614aa0565b8233610b6282611ab7565b6001600160a01b031614610bde5760405162461bcd60e51b815260206004820152602e60248201527f576f6f6c62616c6c3a2073656e646572206973206e6f7420746865206f776e6560448201527f72206f6620746865206e616d652e0000000000000000000000000000000000006064820152608401610a9c565b506000928352600f6020526040909220600881019190915560090155565b610c046137d1565b600e55565b80610c1381613451565b8190610c4e576040517fc1ade620000000000000000000000000000000000000000000000000000000008152600401610a9c91815260200190565b5060016000838152600f602052604090206001015460ff166003811115610c7757610c77614aa0565b03610d2557610c8583610f9d565b610cf65760405162461bcd60e51b8152602060048201526024808201527f576f6f6c62616c6c3a2074617267657420616c7265616479206861732061206e60448201527f616d652e000000000000000000000000000000000000000000000000000000006064820152608401610a9c565b6000828152600f6020526040902060070154421015610d25576000828152600f60205260409020426007909101555b610d30848484613817565b50505050565b82610d4081613451565b8190610d7b576040517fc1ade620000000000000000000000000000000000000000000000000000000008152600401610a9c91815260200190565b506000806001600160a01b038416610d9f5750600d546001600160a01b0316610e56565b6001600160a01b0384166000908152600c602052604090205460ff16610e535760405162461bcd60e51b815260206004820152604560248201527f576f6f6c62616c6c3a2068756d616e566572696669657241646472657373206960448201527f73206e6f7420616e20617070726f76656420766572696679696e6720636f6e7460648201527f726163742e000000000000000000000000000000000000000000000000000000608482015260a401610a9c565b50825b6000868152600f6020526040902060088101546009909101546001600160a01b0383169163bc938721918b918b918b610e8e81611ab7565b600e548d6040518963ffffffff1660e01b8152600401610eb5989796959493929190614afa565b602060405180830381865afa158015610ed2573d6000803e3d6000fd5b505050506040513d601f19601f82011682018060405250810190610ef69190614b49565b915081610f455760405162461bcd60e51b815260206004820152601d60248201527f576f6f6c62616c6c3a20766572696669636174696f6e206661696c65640000006044820152606401610a9c565b6000868152600f602052604090819020600701869055517fa097964438752b1158106f0ae1835e914d0ae0424f78712b7ca995af63f0dd4590610f8b9088815260200190565b60405180910390a15050505050505050565b6001600160a01b0381166000908152601060205260408120548015801590610fcd57506000610fcb826131b8565b115b9392505050565b6000610fdf83611d23565b8210611029576040517fa57d13dc0000000000000000000000000000000000000000000000000000000081526001600160a01b038416600482015260248101839052604401610a9c565b506001600160a01b03919091166000908152600760209081526040808320938352929052205490565b61106d83838360405180602001604052806000815250612826565b505050565b6000828152600f6020526040812060060180548390811061109557611095614b66565b9060005260206000200154905092915050565b60006110b360095490565b82106110f5576040517fa57d13dc0000000000000000000000000000000000000000000000000000000081526000600482015260248101839052604401610a9c565b6009828154811061110857611108614b66565b90600052602060002001549050919050565b6000868673__$6e9f22e923764f2a7fb3fc86851ac048b1$__635f8b54e883836040518363ffffffff1660e01b8152600401611157929190614b95565b602060405180830381865af4158015611174573d6000803e3d6000fd5b505050506040513d601f19601f820116820180604052508101906111989190614b49565b156112005760405162461bcd60e51b815260206004820152603260248201527f576f6f6c62616c6c3a206e616d652063616e2774206861766520272e2720636860448201527130b930b1ba32b939903bb4ba3434b71034b760711b6064820152608401610a9c565b604051630bf16a9d60e31b815273__$6e9f22e923764f2a7fb3fc86851ac048b1$__90635f8b54e8906112399085908590600401614bd8565b602060405180830381865af4158015611256573d6000803e3d6000fd5b505050506040513d601f19601f8201168201806040525081019061127a9190614b49565b156112e25760405162461bcd60e51b815260206004820152603260248201527f576f6f6c62616c6c3a206e616d652063616e2774206861766520272e2720636860448201527130b930b1ba32b939903bb4ba3434b71034b760711b6064820152608401610a9c565b604051630bf16a9d60e31b815273__$6e9f22e923764f2a7fb3fc86851ac048b1$__90635f8b54e89061131b9085908590600401614c1b565b602060405180830381865af4158015611338573d6000803e3d6000fd5b505050506040513d601f19601f8201168201806040525081019061135c9190614b49565b156113c45760405162461bcd60e51b815260206004820152603260248201527f576f6f6c62616c6c3a206e616d652063616e277420686176652027232720636860448201527130b930b1ba32b939903bb4ba3434b71034b760711b6064820152608401610a9c565b604051630bf16a9d60e31b815273__$6e9f22e923764f2a7fb3fc86851ac048b1$__90635f8b54e8906113fd9085908590600401614c5e565b602060405180830381865af415801561141a573d6000803e3d6000fd5b505050506040513d601f19601f8201168201806040525081019061143e9190614b49565b156114a65760405162461bcd60e51b815260206004820152603260248201527f576f6f6c62616c6c3a206e616d652063616e2774206861766520273a2720636860448201527130b930b1ba32b939903bb4ba3434b71034b760711b6064820152608401610a9c565b604051630bf16a9d60e31b815273__$6e9f22e923764f2a7fb3fc86851ac048b1$__90635f8b54e8906114df9085908590600401614c5e565b602060405180830381865af41580156114fc573d6000803e3d6000fd5b505050506040513d601f19601f820116820180604052508101906115209190614b49565b156115885760405162461bcd60e51b815260206004820152603260248201527f576f6f6c62616c6c3a206e616d652063616e2774206861766520273a2720636860448201527130b930b1ba32b939903bb4ba3434b71034b760711b6064820152608401610a9c565b604051630bf16a9d60e31b815273__$6e9f22e923764f2a7fb3fc86851ac048b1$__90635f8b54e8906115c19085908590600401614c5e565b602060405180830381865af41580156115de573d6000803e3d6000fd5b505050506040513d601f19601f820116820180604052508101906116029190614b49565b1561166a5760405162461bcd60e51b815260206004820152603260248201527f576f6f6c62616c6c3a206e616d652063616e2774206861766520273a2720636860448201527130b930b1ba32b939903bb4ba3434b71034b760711b6064820152608401610a9c565b8660016000828152600f602052604090206001015460ff16600381111561169357611693614aa0565b146117065760405162461bcd60e51b815260206004820152602560248201527f576f6f6c62616c6c3a206e616d654944206973206e6f74206f6620747970652060448201527f48756d616e0000000000000000000000000000000000000000000000000000006064820152608401610a9c565b873361171182611ab7565b6001600160a01b03161461178d5760405162461bcd60e51b815260206004820152602e60248201527f576f6f6c62616c6c3a2073656e646572206973206e6f7420746865206f776e6560448201527f72206f6620746865206e616d652e0000000000000000000000000000000000006064820152608401610a9c565b61179689611e5e565b6118085760405162461bcd60e51b815260206004820152603760248201527f576f6f6c62616c6c3a2063726561746f724e616d654944206973206e6f74207660448201527f6572696669656420617320612068756d616e206e616d650000000000000000006064820152608401610a9c565b600060028c8c60405160200161181f929190614ca1565b60408051601f198184030181529082905261183991614cd3565b602060405180830381855afa158015611856573d6000803e3d6000fd5b5050506040513d601f19601f820116820180604052508101906118799190614cef565b905061188481613451565b156118f65760405162461bcd60e51b8152602060048201526024808201527f576f6f6c62616c6c3a206e616d6520697320616c72656164792072656769737460448201527f65726564000000000000000000000000000000000000000000000000000000006064820152608401610a9c565b6000601160009054906101000a90046001600160a01b03166001600160a01b031663a90734288e8e8b6040518463ffffffff1660e01b815260040161193d93929190614d08565b6020604051808303816000875af115801561195c573d6000803e3d6000fd5b505050506040513d601f19601f820116820180604052508101906119809190614cef565b9050803410156119d25760405162461bcd60e51b815260206004820152601d60248201527f576f6f6c62616c6c3a20696e73756666696369656e742066756e64732e0000006044820152606401610a9c565b6119dc33836138ce565b6000828152600f602052604090206119f58d8f83614d79565b506000828152600f60205260409020600101805460ff19166003179055611a1f8862093a80614e68565b611a2f9063ffffffff1642614e8e565b6000838152600f602052604090206002810191909155600481018c9055600881018b9055600981018a90556006015415611a6c57611a6c82613965565b7fc9da64abaecb363393da953e279c6c494077563f5063a96522f2322df15a1d768d8d8d604051611a9f93929190614ea1565b60405180910390a1509b9a5050505050505050505050565b600081611ac381613451565b8190611afe576040517fc1ade620000000000000000000000000000000000000000000000000000000008152600401610a9c91815260200190565b50610fcd83613a53565b50919050565b606081611b1a81613451565b8190611b55576040517fc1ade620000000000000000000000000000000000000000000000000000000008152600401610a9c91815260200190565b50606060016000858152600f602052604090206001015460ff166003811115611b8057611b80614aa0565b03611c23576000848152600f602052604090208054611b9e90614a53565b80601f0160208091040260200160405190810160405280929190818152602001828054611bca90614a53565b8015611c175780601f10611bec57610100808354040283529160200191611c17565b820191906000526020600020905b815481529060010190602001808311611bfa57829003601f168201915b50505050509050610fcd565b6000848152600f602052604090208054611c3c90614a53565b80601f0160208091040260200160405190810160405280929190818152602001828054611c6890614a53565b8015611cb55780601f10611c8a57610100808354040283529160200191611cb5565b820191906000526020600020905b815481529060010190602001808311611c9857829003601f168201915b5050506000878152600f602052604090206004015492935050505b6000818152600f60209081526040918290209151611cf2928592909101614ec5565b60408051601f198184030181529181526000928352600f6020529091206004015490915080611cd057509392505050565b60006001600160a01b038216611d68576040517f89c62b6400000000000000000000000000000000000000000000000000000000815260006004820152602401610a9c565b506001600160a01b031660009081526004602052604090205490565b611d8c6137d1565b611d966000613a5e565b565b8133611da382611ab7565b6001600160a01b031614611e1f5760405162461bcd60e51b815260206004820152602e60248201527f576f6f6c62616c6c3a2073656e646572206973206e6f7420746865206f776e6560448201527f72206f6620746865206e616d652e0000000000000000000000000000000000006064820152608401610a9c565b506000918252600f6020526040909120600501805473ffffffffffffffffffffffffffffffffffffffff19166001600160a01b03909216919091179055565b60008160016000828152600f602052604090206001015460ff166003811115611e8957611e89614aa0565b14611efc5760405162461bcd60e51b815260206004820152602560248201527f576f6f6c62616c6c3a206e616d654944206973206e6f74206f6620747970652060448201527f48756d616e0000000000000000000000000000000000000000000000000000006064820152608401610a9c565b6000838152600f60205260409020600201544211801590610fcd575050506000908152600f602052604090206007015442111590565b611f3a6137d1565b6001600160a01b03166000908152600c60205260409020805460ff19166001179055565b60606002805461095e90614a53565b610a15338383613abb565b611f806137d1565b6011805473ffffffffffffffffffffffffffffffffffffffff19166001600160a01b0392909216919091179055565b6000828273__$6e9f22e923764f2a7fb3fc86851ac048b1$__635f8b54e883836040518363ffffffff1660e01b8152600401611fec929190614b95565b602060405180830381865af4158015612009573d6000803e3d6000fd5b505050506040513d601f19601f8201168201806040525081019061202d9190614b49565b156120955760405162461bcd60e51b815260206004820152603260248201527f576f6f6c62616c6c3a206e616d652063616e2774206861766520272e2720636860448201527130b930b1ba32b939903bb4ba3434b71034b760711b6064820152608401610a9c565b604051630bf16a9d60e31b815273__$6e9f22e923764f2a7fb3fc86851ac048b1$__90635f8b54e8906120ce9085908590600401614bd8565b602060405180830381865af41580156120eb573d6000803e3d6000fd5b505050506040513d601f19601f8201168201806040525081019061210f9190614b49565b156121775760405162461bcd60e51b815260206004820152603260248201527f576f6f6c62616c6c3a206e616d652063616e2774206861766520272e2720636860448201527130b930b1ba32b939903bb4ba3434b71034b760711b6064820152608401610a9c565b604051630bf16a9d60e31b815273__$6e9f22e923764f2a7fb3fc86851ac048b1$__90635f8b54e8906121b09085908590600401614c1b565b602060405180830381865af41580156121cd573d6000803e3d6000fd5b505050506040513d601f19601f820116820180604052508101906121f19190614b49565b156122595760405162461bcd60e51b815260206004820152603260248201527f576f6f6c62616c6c3a206e616d652063616e277420686176652027232720636860448201527130b930b1ba32b939903bb4ba3434b71034b760711b6064820152608401610a9c565b604051630bf16a9d60e31b815273__$6e9f22e923764f2a7fb3fc86851ac048b1$__90635f8b54e8906122929085908590600401614c5e565b602060405180830381865af41580156122af573d6000803e3d6000fd5b505050506040513d601f19601f820116820180604052508101906122d39190614b49565b1561233b5760405162461bcd60e51b815260206004820152603260248201527f576f6f6c62616c6c3a206e616d652063616e2774206861766520273a2720636860448201527130b930b1ba32b939903bb4ba3434b71034b760711b6064820152608401610a9c565b604051630bf16a9d60e31b815273__$6e9f22e923764f2a7fb3fc86851ac048b1$__90635f8b54e8906123749085908590600401614c5e565b602060405180830381865af4158015612391573d6000803e3d6000fd5b505050506040513d601f19601f820116820180604052508101906123b59190614b49565b1561241d5760405162461bcd60e51b815260206004820152603260248201527f576f6f6c62616c6c3a206e616d652063616e2774206861766520273a2720636860448201527130b930b1ba32b939903bb4ba3434b71034b760711b6064820152608401610a9c565b604051630bf16a9d60e31b815273__$6e9f22e923764f2a7fb3fc86851ac048b1$__90635f8b54e8906124569085908590600401614c5e565b602060405180830381865af4158015612473573d6000803e3d6000fd5b505050506040513d601f19601f820116820180604052508101906124979190614b49565b156124ff5760405162461bcd60e51b815260206004820152603260248201527f576f6f6c62616c6c3a206e616d652063616e2774206861766520273a2720636860448201527130b930b1ba32b939903bb4ba3434b71034b760711b6064820152608401610a9c565b8561250981613451565b8190612544576040517fc1ade620000000000000000000000000000000000000000000000000000000008152600401610a9c91815260200190565b50863361255082611ab7565b6001600160a01b0316146125cc5760405162461bcd60e51b815260206004820152602e60248201527f576f6f6c62616c6c3a2073656e646572206973206e6f7420746865206f776e6560448201527f72206f6620746865206e616d652e0000000000000000000000000000000000006064820152608401610a9c565b60016000898152600f602052604090206001015460ff1660038111156125f4576125f4614aa0565b141580612605575061260588611e5e565b6126775760405162461bcd60e51b815260206004820152603760248201527f576f6f6c62616c6c3a2063726561746f724e616d654944206973206e6f74207660448201527f6572696669656420617320612068756d616e206e616d650000000000000000006064820152608401610a9c565b6000600288886126868c613b73565b60405160200161269893929190614f84565b60408051601f19818403018152908290526126b291614cd3565b602060405180830381855afa1580156126cf573d6000803e3d6000fd5b5050506040513d601f19601f820116820180604052508101906126f29190614cef565b90506126fd81613451565b1561274a5760405162461bcd60e51b815260206004820181905260248201527f576f6f6c62616c6c3a207375626e616d6520616c7265616479206578697374736044820152606401610a9c565b61275c6127568a611ab7565b826138ce565b6000818152600f60205260409020612775888a83614d79565b506000818152600f602090815260408083206001808201805460ff191660029081179091558e86529285208084015493830193909355600482018e90556006928301805491820181558552928420909201849055918390520154156127dd576127dd81613965565b7fa6ae7a104192b83527461cc0d60f2951ded61ab68029438b0006eedf54436e9488888b846040516128129493929190614fd0565b60405180910390a198975050505050505050565b612831848484610c09565b610d303385858585613c13565b6000858573__$6e9f22e923764f2a7fb3fc86851ac048b1$__635f8b54e883836040518363ffffffff1660e01b815260040161287b929190614b95565b602060405180830381865af4158015612898573d6000803e3d6000fd5b505050506040513d601f19601f820116820180604052508101906128bc9190614b49565b156129245760405162461bcd60e51b815260206004820152603260248201527f576f6f6c62616c6c3a206e616d652063616e2774206861766520272e2720636860448201527130b930b1ba32b939903bb4ba3434b71034b760711b6064820152608401610a9c565b604051630bf16a9d60e31b815273__$6e9f22e923764f2a7fb3fc86851ac048b1$__90635f8b54e89061295d9085908590600401614bd8565b602060405180830381865af415801561297a573d6000803e3d6000fd5b505050506040513d601f19601f8201168201806040525081019061299e9190614b49565b15612a065760405162461bcd60e51b815260206004820152603260248201527f576f6f6c62616c6c3a206e616d652063616e2774206861766520272e2720636860448201527130b930b1ba32b939903bb4ba3434b71034b760711b6064820152608401610a9c565b604051630bf16a9d60e31b815273__$6e9f22e923764f2a7fb3fc86851ac048b1$__90635f8b54e890612a3f9085908590600401614c1b565b602060405180830381865af4158015612a5c573d6000803e3d6000fd5b505050506040513d601f19601f82011682018060405250810190612a809190614b49565b15612ae85760405162461bcd60e51b815260206004820152603260248201527f576f6f6c62616c6c3a206e616d652063616e277420686176652027232720636860448201527130b930b1ba32b939903bb4ba3434b71034b760711b6064820152608401610a9c565b604051630bf16a9d60e31b815273__$6e9f22e923764f2a7fb3fc86851ac048b1$__90635f8b54e890612b219085908590600401614c5e565b602060405180830381865af4158015612b3e573d6000803e3d6000fd5b505050506040513d601f19601f82011682018060405250810190612b629190614b49565b15612bca5760405162461bcd60e51b815260206004820152603260248201527f576f6f6c62616c6c3a206e616d652063616e2774206861766520273a2720636860448201527130b930b1ba32b939903bb4ba3434b71034b760711b6064820152608401610a9c565b604051630bf16a9d60e31b815273__$6e9f22e923764f2a7fb3fc86851ac048b1$__90635f8b54e890612c039085908590600401614c5e565b602060405180830381865af4158015612c20573d6000803e3d6000fd5b505050506040513d601f19601f82011682018060405250810190612c449190614b49565b15612cac5760405162461bcd60e51b815260206004820152603260248201527f576f6f6c62616c6c3a206e616d652063616e2774206861766520273a2720636860448201527130b930b1ba32b939903bb4ba3434b71034b760711b6064820152608401610a9c565b604051630bf16a9d60e31b815273__$6e9f22e923764f2a7fb3fc86851ac048b1$__90635f8b54e890612ce59085908590600401614c5e565b602060405180830381865af4158015612d02573d6000803e3d6000fd5b505050506040513d601f19601f82011682018060405250810190612d269190614b49565b15612d8e5760405162461bcd60e51b815260206004820152603260248201527f576f6f6c62616c6c3a206e616d652063616e2774206861766520273a2720636860448201527130b930b1ba32b939903bb4ba3434b71034b760711b6064820152608401610a9c565b600060028989604051602001612da5929190614ff7565b60408051601f1981840301815290829052612dbf91614cd3565b602060405180830381855afa158015612ddc573d6000803e3d6000fd5b5050506040513d601f19601f82011682018060405250810190612dff9190614cef565b9050612e0a81613451565b15612e7c5760405162461bcd60e51b8152602060048201526024808201527f576f6f6c62616c6c3a206e616d6520697320616c72656164792072656769737460448201527f65726564000000000000000000000000000000000000000000000000000000006064820152608401610a9c565b612e8533610f9d565b15612f1e5760405162461bcd60e51b815260206004820152604d60248201527f576f6f6c62616c6c3a20746865206164647265737320616c726561647920686160448201527f732061206e616d652c206f6e6c79206f6e65206e616d6520706572206164647260648201527f65737320697320616c6c77656400000000000000000000000000000000000000608482015260a401610a9c565b6011546040517fa90734280000000000000000000000000000000000000000000000000000000081526000916001600160a01b03169063a907342890612f6c908d908d908b90600401614d08565b6020604051808303816000875af1158015612f8b573d6000803e3d6000fd5b505050506040513d601f19601f82011682018060405250810190612faf9190614cef565b9050803410156130015760405162461bcd60e51b815260206004820152601d60248201527f576f6f6c62616c6c3a20696e73756666696369656e742066756e64732e0000006044820152606401610a9c565b61300b33836138ce565b6000828152600f602052604090206130248a8c83614d79565b506000828152600f602052604090206001908101805460ff191690911790556130508662093a80614e68565b6130609063ffffffff1642614e8e565b6000838152600f60205260409020600281019190915560038101805473ffffffffffffffffffffffffffffffffffffffff191633179055426007820155600881018990556009810188905560060154156130bd576130bd82613965565b33600090815260106020526040902054156130eb57336000908152601060205260409020546130eb90613321565b3360008181526010602052604090819020849055517fbc28b99a41e9cf3ab6cf2eeac86871a5ad2a0201a24e35e3398ff39c2f03ba899161312f918d918d91615029565b60405180910390a15098975050505050505050565b606061314f82613603565b50600061316760408051602081019091526000815290565b905060008151116131875760405180602001604052806000815250610fcd565b8061319184613b73565b6040516020016131a2929190615056565b6040516020818303038152906040529392505050565b600060016000838152600f602052604090206001015460ff1660038111156131e2576131e2614aa0565b03613256576000828152600f6020526040812060020154600b5490919061320c9062015180615085565b6000858152600f60205260409020600701546132289190614e8e565b90506000818310613239578161323b565b825b905042811161324b57600061324d565b805b95945050505050565b60036000838152600f602052604090206001015460ff16600381111561327e5761327e614aa0565b036132a3576000828152600f6020526040902060020154428111610949576000610fcd565b60026000838152600f602052604090206001015460ff1660038111156132cb576132cb614aa0565b036132eb576000828152600f6020526040902060040154610fcd816131b8565b506000919050565b919050565b6133006137d1565b6001600160a01b03166000908152600c60205260409020805460ff19169055565b4261332b826131b8565b1061339e5760405162461bcd60e51b815260206004820152602260248201527f576f6f6c62616c6c3a20746865206e616d65206973206e6f742065787069726560448201527f642e0000000000000000000000000000000000000000000000000000000000006064820152608401610a9c565b6000818152600f6020526040902060060154156133be576133be81613965565b6000818152600f60205260408120906133d782826144af565b60018201805460ff1916905560006002830181905560038301805473ffffffffffffffffffffffffffffffffffffffff1990811690915560048401829055600584018054909116905561342e9060068401906144e9565b506000600782018190556008820181905560099091015561344e81613dba565b50565b60008061345d836131b8565b1192915050565b60008161347081613451565b81906134ab576040517fc1ade620000000000000000000000000000000000000000000000000000000008152600401610a9c91815260200190565b5050506000908152600f60205260409020600501546001600160a01b031690565b6134d46137d1565b6001600160a01b038116613517576040517f1e4fbdf700000000000000000000000000000000000000000000000000000000815260006004820152602401610a9c565b61344e81613a5e565b60007fffffffff0000000000000000000000000000000000000000000000000000000082167f80ac58cd0000000000000000000000000000000000000000000000000000000014806135b357507fffffffff0000000000000000000000000000000000000000000000000000000082167f5b5e139f00000000000000000000000000000000000000000000000000000000145b8061094957507f01ffc9a7000000000000000000000000000000000000000000000000000000007fffffffff00000000000000000000000000000000000000000000000000000000831614610949565b6000818152600360205260408120546001600160a01b031680610949576040517f7e27328900000000000000000000000000000000000000000000000000000000815260048101849052602401610a9c565b61106d8383836001613e0e565b6000818152600f60205260408082206004015480835290822090916006909101905b815481101561373857838282815481106136a0576136a0614b66565b90600052602060002001540361372657815482906136c09060019061509c565b815481106136d0576136d0614b66565b90600052602060002001548282815481106136ed576136ed614b66565b90600052602060002001819055508180548061370b5761370b6150af565b60019003818190600052602060002001600090559055613738565b80613730816150de565b915050613684565b61374184613965565b6000848152600f602052604081209061375a82826144af565b60018201805460ff1916905560006002830181905560038301805473ffffffffffffffffffffffffffffffffffffffff199081169091556004840182905560058401805490911690556137b19060068401906144e9565b5060006007820181905560088201819055600990910155610d3084613dba565b6000546001600160a01b03163314611d96576040517f118cdaa7000000000000000000000000000000000000000000000000000000008152336004820152602401610a9c565b6001600160a01b03821661385a576040517f64a0ae9200000000000000000000000000000000000000000000000000000000815260006004820152602401610a9c565b6000613867838333613f59565b9050836001600160a01b0316816001600160a01b031614610d30576040517f64283d7b0000000000000000000000000000000000000000000000000000000081526001600160a01b0380861660048301526024820184905282166044820152606401610a9c565b6001600160a01b038216613911576040517f64a0ae9200000000000000000000000000000000000000000000000000000000815260006004820152602401610a9c565b600061391f83836000613f59565b90506001600160a01b0381161561106d576040517f73c6ac6e00000000000000000000000000000000000000000000000000000000815260006004820152602401610a9c565b60005b6000828152600f6020526040902060060154811015610a15576000828152600f602052604081206006018054839081106139a4576139a4614b66565b906000526020600020015490506139ba81613965565b6000818152600f60205260408120906139d382826144af565b60018201805460ff1916905560006002830181905560038301805473ffffffffffffffffffffffffffffffffffffffff19908116909155600484018290556005840180549091169055613a2a9060068401906144e9565b5060006007820181905560088201819055600990910155613a4a81613dba565b50600101613968565b600061094982613603565b600080546001600160a01b0383811673ffffffffffffffffffffffffffffffffffffffff19831681178455604051919092169283917f8be0079c531659141344cd1fd0a4f28419497f9722a3daafe3b4186f6b6457e09190a35050565b6001600160a01b038216613b06576040517f5b08ba180000000000000000000000000000000000000000000000000000000081526001600160a01b0383166004820152602401610a9c565b6001600160a01b03838116600081815260066020908152604080832094871680845294825291829020805460ff191686151590811790915591519182527f17307eab39ab6107e8899845ad3d59bd9653f200f220920489ca2b5937696c31910160405180910390a3505050565b60606000613b808361402e565b600101905060008167ffffffffffffffff811115613ba057613ba06148ba565b6040519080825280601f01601f191660200182016040528015613bca576020820181803683370190505b5090508181016020015b600019017f3031323334353637383961626364656600000000000000000000000000000000600a86061a8153600a8504945084613bd457509392505050565b6001600160a01b0383163b15613db3576040517f150b7a020000000000000000000000000000000000000000000000000000000081526001600160a01b0384169063150b7a0290613c6e9088908890879087906004016150f8565b6020604051808303816000875af1925050508015613ca9575060408051601f3d908101601f19168201909252613ca691810190615139565b60015b613d2b573d808015613cd7576040519150601f19603f3d011682016040523d82523d6000602084013e613cdc565b606091505b508051600003613d23576040517f64a0ae920000000000000000000000000000000000000000000000000000000081526001600160a01b0385166004820152602401610a9c565b805181602001fd5b7fffffffff0000000000000000000000000000000000000000000000000000000081167f150b7a020000000000000000000000000000000000000000000000000000000014613db1576040517f64a0ae920000000000000000000000000000000000000000000000000000000081526001600160a01b0385166004820152602401610a9c565b505b5050505050565b6000613dc96000836000613f59565b90506001600160a01b038116610a15576040517f7e27328900000000000000000000000000000000000000000000000000000000815260048101839052602401610a9c565b8080613e2257506001600160a01b03821615155b15613f1c576000613e3284613603565b90506001600160a01b03831615801590613e5e5750826001600160a01b0316816001600160a01b031614155b8015613e9057506001600160a01b0380821660009081526006602090815260408083209387168352929052205460ff16155b15613ed2576040517fa9fbf51f0000000000000000000000000000000000000000000000000000000081526001600160a01b0384166004820152602401610a9c565b8115613f1a5783856001600160a01b0316826001600160a01b03167f8c5be1e5ebec7d5bd14f71427d1e84f3dd0314c0f7b2291e5b200ac8c7c3b92560405160405180910390a45b505b50506000908152600560205260409020805473ffffffffffffffffffffffffffffffffffffffff19166001600160a01b0392909216919091179055565b600080613f67858585614110565b90506001600160a01b038116613fc457613fbf84600980546000838152600a60205260408120829055600182018355919091527f6e1540171b6c0c960b71a7020d9f60077f6af931a8bbf590da0223dacf75c7af0155565b613fe7565b846001600160a01b0316816001600160a01b031614613fe757613fe78185614216565b6001600160a01b03851661400357613ffe84614297565b614026565b846001600160a01b0316816001600160a01b031614614026576140268585614346565b949350505050565b6000807a184f03e93ff9f4daa797ed6e38ed64bf6a1f0100000000000000008310614077577a184f03e93ff9f4daa797ed6e38ed64bf6a1f010000000000000000830492506040015b6d04ee2d6d415b85acef810000000083106140a3576d04ee2d6d415b85acef8100000000830492506020015b662386f26fc1000083106140c157662386f26fc10000830492506010015b6305f5e10083106140d9576305f5e100830492506008015b61271083106140ed57612710830492506004015b606483106140ff576064830492506002015b600a83106109495760010192915050565b6000828152600360205260408120546001600160a01b039081169083161561413d5761413d818486614396565b6001600160a01b0381161561417b5761415a600085600080613e0e565b6001600160a01b038116600090815260046020526040902080546000190190555b6001600160a01b038516156141aa576001600160a01b0385166000908152600460205260409020805460010190555b600084815260036020526040808220805473ffffffffffffffffffffffffffffffffffffffff19166001600160a01b0389811691821790925591518793918516917fddf252ad1be2c89b69c2b068fc378daa952ba7f163c4a11628f55a4df523b3ef91a4949350505050565b600061422183611d23565b6000838152600860209081526040808320546001600160a01b038816845260079092529091209192509081831461427857600083815260208281526040808320548584528184208190558352600890915290208290555b6000938452600860209081526040808620869055938552525081205550565b6009546000906142a99060019061509c565b6000838152600a6020526040812054600980549394509092849081106142d1576142d1614b66565b9060005260206000200154905080600983815481106142f2576142f2614b66565b6000918252602080832090910192909255828152600a9091526040808220849055858252812055600980548061432a5761432a6150af565b6001900381819060005260206000200160009055905550505050565b6000600161435384611d23565b61435d919061509c565b6001600160a01b039093166000908152600760209081526040808320868452825280832085905593825260089052919091209190915550565b6143a183838361442c565b61106d576001600160a01b0383166143e8576040517f7e27328900000000000000000000000000000000000000000000000000000000815260048101829052602401610a9c565b6040517f177e802f0000000000000000000000000000000000000000000000000000000081526001600160a01b038316600482015260248101829052604401610a9c565b60006001600160a01b038316158015906140265750826001600160a01b0316846001600160a01b0316148061448657506001600160a01b0380851660009081526006602090815260408083209387168352929052205460ff165b806140265750506000908152600560205260409020546001600160a01b03908116911614919050565b5080546144bb90614a53565b6000825580601f106144cb575050565b601f01602090049060005260206000209081019061344e9190614503565b508054600082559060005260206000209081019061344e91905b5b808211156145185760008155600101614504565b5090565b7fffffffff000000000000000000000000000000000000000000000000000000008116811461344e57600080fd5b60006020828403121561455c57600080fd5b8135610fcd8161451c565b60005b8381101561458257818101518382015260200161456a565b50506000910152565b600081518084526145a3816020860160208601614567565b601f01601f19169290920160200192915050565b602081526000610fcd602083018461458b565b6000602082840312156145dc57600080fd5b5035919050565b80356001600160a01b03811681146132f357600080fd5b6000806040838503121561460d57600080fd5b614616836145e3565b946020939093013593505050565b60008060006060848603121561463957600080fd5b505081359360208301359350604090920135919050565b60008060006060848603121561466557600080fd5b61466e846145e3565b925061467c602085016145e3565b929592945050506040919091013590565b60008083601f84011261469f57600080fd5b50813567ffffffffffffffff8111156146b757600080fd5b6020830191508360208285010111156146cf57600080fd5b9250929050565b6000806000806000608086880312156146ee57600080fd5b853567ffffffffffffffff81111561470557600080fd5b6147118882890161468d565b9096509450506020860135925060408601359150614731606087016145e3565b90509295509295909350565b60006020828403121561474f57600080fd5b610fcd826145e3565b6000806040838503121561476b57600080fd5b50508035926020909101359150565b803563ffffffff811681146132f357600080fd5b60008060008060008060a087890312156147a757600080fd5b863567ffffffffffffffff8111156147be57600080fd5b6147ca89828a0161468d565b9097509550506020870135935060408701359250606087013591506147f16080880161477a565b90509295509295509295565b6000806040838503121561481057600080fd5b82359150614820602084016145e3565b90509250929050565b801515811461344e57600080fd5b6000806040838503121561484a57600080fd5b614853836145e3565b9150602083013561486381614829565b809150509250929050565b60008060006040848603121561488357600080fd5b83359250602084013567ffffffffffffffff8111156148a157600080fd5b6148ad8682870161468d565b9497909650939450505050565b7f4e487b7100000000000000000000000000000000000000000000000000000000600052604160045260246000fd5b600080600080608085870312156148ff57600080fd5b614908856145e3565b9350614916602086016145e3565b925060408501359150606085013567ffffffffffffffff81111561493957600080fd5b8501601f8101871361494a57600080fd5b803567ffffffffffffffff811115614964576149646148ba565b604051601f19603f601f19601f8501160116810181811067ffffffffffffffff82111715614994576149946148ba565b6040528181528282016020018910156149ac57600080fd5b8160208401602083013760006020838301015280935050505092959194509250565b6000806000806000608086880312156149e657600080fd5b853567ffffffffffffffff8111156149fd57600080fd5b614a098882890161468d565b90965094505060208601359250604086013591506147316060870161477a565b60008060408385031215614a3c57600080fd5b614a45836145e3565b9150614820602084016145e3565b600181811c90821680614a6757607f821691505b602082108103611b08577f4e487b7100000000000000000000000000000000000000000000000000000000600052602260045260246000fd5b7f4e487b7100000000000000000000000000000000000000000000000000000000600052602160045260246000fd5b818352818160208501375060006020828401015260006020601f19601f840116840101905092915050565b60e081526000614b0e60e083018a8c614acf565b602083019890985250604081019590955260608501939093526001600160a01b0391909116608084015260a083015260c09091015292915050565b600060208284031215614b5b57600080fd5b8151610fcd81614829565b7f4e487b7100000000000000000000000000000000000000000000000000000000600052603260045260246000fd5b604081526000614ba9604083018486614acf565b90507f2e0000000000000000000000000000000000000000000000000000000000000060208301529392505050565b604081526000614bec604083018486614acf565b90507f2c0000000000000000000000000000000000000000000000000000000000000060208301529392505050565b604081526000614c2f604083018486614acf565b90507f230000000000000000000000000000000000000000000000000000000000000060208301529392505050565b604081526000614c72604083018486614acf565b90507f3a0000000000000000000000000000000000000000000000000000000000000060208301529392505050565b818382377f23230000000000000000000000000000000000000000000000000000000000009101908152600201919050565b60008251614ce5818460208701614567565b9190910192915050565b600060208284031215614d0157600080fd5b5051919050565b604081526000614d1c604083018587614acf565b905063ffffffff83166020830152949350505050565b601f82111561106d57806000526020600020601f840160051c81016020851015614d595750805b601f840160051c820191505b81811015613db35760008155600101614d65565b67ffffffffffffffff831115614d9157614d916148ba565b614da583614d9f8354614a53565b83614d32565b6000601f841160018114614dd95760008515614dc15750838201355b600019600387901b1c1916600186901b178355613db3565b600083815260209020601f19861690835b82811015614e0a5786850135825560209485019460019092019101614dea565b5086821015614e275760001960f88860031b161c19848701351681555b505060018560011b0183555050505050565b7f4e487b7100000000000000000000000000000000000000000000000000000000600052601160045260246000fd5b63ffffffff8181168382160290811690818114614e8757614e87614e39565b5092915050565b8082018082111561094957610949614e39565b604081526000614eb5604083018587614acf565b9050826020830152949350505050565b60008351614ed7818460208801614567565b80830190507f2e00000000000000000000000000000000000000000000000000000000000000815260008454614f0c81614a53565b600182168015614f235760018114614f3e57614f77565b60ff1983166001860152600182151583028601019350614f77565b87600052602060002060005b83811015614f6c57815460018289010152600182019150602081019050614f4a565b505060018286010193505b5091979650505050505050565b8284823760008382017f2e0000000000000000000000000000000000000000000000000000000000000081528351614fc3816001840160208801614567565b0160010195945050505050565b606081526000614fe4606083018688614acf565b6020830194909452506040015292915050565b818382377f23000000000000000000000000000000000000000000000000000000000000009101908152600101919050565b60408152600061503d604083018587614acf565b90506001600160a01b0383166020830152949350505050565b60008351615068818460208801614567565b83519083019061507c818360208801614567565b01949350505050565b808202811582820484141761094957610949614e39565b8181038181111561094957610949614e39565b7f4e487b7100000000000000000000000000000000000000000000000000000000600052603160045260246000fd5b600060001982036150f1576150f1614e39565b5060010190565b6001600160a01b03851681526001600160a01b038416602082015282604082015260806060820152600061512f608083018461458b565b9695505050505050565b60006020828403121561514b57600080fd5b8151610fcd8161451c56fea2646970667358221220a2eef346a15f10f2499426fcf5024b3d73248ff5a65a2239fe0e9a280fc9db8264736f6c634300081c0033","linkReferences":{"src/StringUtils.sol":{"StringUtils":[{"start":5376,"length":20},{"start":5615,"length":20},{"start":5841,"length":20},{"start":6067,"length":20},{"start":6293,"length":20},{"start":6519,"length":20},{"start":9109,"length":20},{"start":9348,"length":20},{"start":9574,"length":20},{"start":9800,"length":20},{"start":10026,"length":20},{"start":10252,"length":20},{"start":11300,"length":20},{"start":11539,"length":20},{"start":11765,"length":20},{"start":11991,"length":20},{"start":12217,"length":20},{"start":12443,"length":20}]}}},"methodIdentifiers":{"addHumanVerifierContract(address)":"854cac2d","approve(address,uint256)":"095ea7b3","balanceOf(address)":"70a08231","clearExpiredName(uint256)":"ea5138ec","data(uint256)":"f0ba8440","doesNameExist(uint256)":"ea5e6f3f","getApproved(uint256)":"081812fc","getExpirationTimestamp(uint256)":"d9e5896e","getName(uint256)":"6b8ff574","getNameType(uint256)":"0ae5fa41","getParentID(uint256)":"30b94770","hasHumanName(address)":"2bc4ab27","humanNames(address)":"d9244b93","isApprovedForAll(address,address)":"e985e9c5","isHumanNameVerified(uint256)":"79d290dc","mainHumanVerifierContract()":"cb489594","name()":"06fdde03","namePricingContract()":"801156ea","newArtificialName(string,uint256,bytes32,bytes32,uint32)":"631549d2","newHumanName(string,bytes32,bytes32,uint32)":"c7cc5e98","newSubname(uint256,string)":"b5916ab2","owner()":"8da5cb5b","ownerOf(uint256)":"6352211e","removeHumanVerifierContract(address)":"dbb4828e","removeSubname(uint256)":"0a41529e","renounceOwnership()":"715018a6","safeTransferFrom(address,address,uint256)":"42842e0e","safeTransferFrom(address,address,uint256,bytes)":"b88d4fde","setApprovalForAll(address,bool)":"a22cb465","setDataContract(uint256,address)":"73681ba1","setNamePricingContract(address)":"ae865580","setPubkey(uint256,bytes32,bytes32)":"0c1906ec","setSocietyRoot(bytes32)":"2277bba8","societyRoot()":"86a4961f","subnameIndex(uint256,uint256)":"4812e029","subnamesAmount(uint256)":"1e857a15","supportsInterface(bytes4)":"01ffc9a7","symbol()":"95d89b41","tokenByIndex(uint256)":"4f6ccce7","tokenOfOwnerByIndex(address,uint256)":"2f745c59","tokenURI(uint256)":"c87b56dd","totalSupply()":"18160ddd","transferFrom(address,address,uint256)":"23b872dd","transferOwnership(address)":"f2fde38b","verifyHuman(bytes,uint256,uint256,address)":"2b03d78b"},"id":40}